{
  "blockHeaders": [
    {
      "source": "https://eips.ethereum.org/EIPS/eip-2481",
      "title": "pre eip1559 block header",
      "rlp": "0xf901f9a00000000000000000000000000000000000000000000000000000000000000000a00000000000000000000000000000000000000000000000000000000000000000940000000000000000000000000000000000000000a00000000000000000000000000000000000000000000000000000000000000000a00000000000000000000000000000000000000000000000000000000000000000a00000000000000000000000000000000000000000000000000000000000000000b90100000000000000000000000000000000000000000000000000000000000000000000000000000000000000000000000000000000000000000000000000000000000000000000000000000000000000000000000000000000000000000000000000000000000000000000000000000000000000000000000000000000000000000000000000000000000000000000000000000000000000000000000000000000000000000000000000000000000000000000000000000000000000000000000000000000000000000000000000000000000000000000000000000000000000000000000000000000000000000000000000000000000000000000000000000000008208ae820d0582115c8215b3821a0a827788a00000000000000000000000000000000000000000000000000000000000000000880000000000000000",
      "hash": "0x8c2f2af15b7b563b6ab1e09bed0e9caade7ed730aec98b70a993597a797579a9",
      "header": {
        "parentHash": "0x0000000000000000000000000000000000000000000000000000000000000000",
        "sha3Uncles": "0x0000000000000000000000000000000000000000000000000000000000000000",
        "miner": "0x0000000000000000000000000000000000000000",
        "stateRoot": "0x0000000000000000000000000000000000000000000000000000000000000000",
        "transactionsRoot": "0x0000000000000000000000000000000000000000000000000000000000000000",
        "receiptsRoot": "0x0000000000000000000000000000000000000000000000000000000000000000",
        "logsBloom": "0x00000000000000000000000000000000000000000000000000000000000000000000000000000000000000000000000000000000000000000000000000000000000000000000000000000000000000000000000000000000000000000000000000000000000000000000000000000000000000000000000000000000000000000000000000000000000000000000000000000000000000000000000000000000000000000000000000000000000000000000000000000000000000000000000000000000000000000000000000000000000000000000000000000000000000000000000000000000000000000000000000000000000000000000000000000000",
        "difficulty": "0x8ae",
        "number": "0xd05",
        "gasLimit": "0x115c",
        "gasUsed": "0x15b3",
        "timestamp": "0x1a0a",
        "extraData": "0x7788",
        "mixHash": "0x0000000000000000000000000000000000000000000000000000000000000000",
        "nonce": "0x0000000000000000",
        "hash": "0x8c2f2af15b7b563b6ab1e09bed0e9caade7ed730aec98b70a993597a797579a9"
      }
    },
    {
      "source": "https://github.com/ethereum/tests/blob/f47bbef4da376a49c8fc3166f09ab8a6d182f765/BlockchainTests/ValidBlocks/bcEIP1559/baseFee.json#L15-L36",
      "rlp": "0xf90200a0e0a94a7a3c9617401586b1a27025d2d9671332d22d540e0af72b069170380f2aa01dcc4de8dec75d7aab85b567b6ccd41ad312451b948a7413f0a142fd40d4934794ba5e000000000000000000000000000000000000a0ec3c94b18b8a1cff7d60f8d258ec723312932928626b4c9355eb4ab3568ec7f7a050f738580ed699f0469702c7ccc63ed2e51bc034be9479b7bff4e68dee84accfa029b0562f7140574dd0d50dee8a271b22e1a0a7b78fca58f7c60370d8317ba2a9b9010000000000000000000000000000000000000000000000000000000000000000000000000000000000000000000000000000000000000000000000000000000000000000000000000000000000000000000000000000000000000000000000000000000000000000000000000000000000000000000000000000000000000000000000000000000000000000000000000000000000000000000000000000000000000000000000000000000000000000000000000000000000000000000000000000000000000000000000000000000000000000000000000000000000000000000000000000000000000000000000000000000000000000000000000000000000830200000188016345785d8a00008301553482079e42a0000000000000000000000000000000000000000000000000000000000000000088000000000000000082036b",
      "title": "post eip1559 block header",
      "hash": "0x6a251c7c3c5dca7b42407a3752ff48f3bbca1fab7f9868371d9918daf1988d1f",
      "header": {
        "baseFeePerGas": "0x036b",
        "logsBloom": "0x00000000000000000000000000000000000000000000000000000000000000000000000000000000000000000000000000000000000000000000000000000000000000000000000000000000000000000000000000000000000000000000000000000000000000000000000000000000000000000000000000000000000000000000000000000000000000000000000000000000000000000000000000000000000000000000000000000000000000000000000000000000000000000000000000000000000000000000000000000000000000000000000000000000000000000000000000000000000000000000000000000000000000000000000000000000",
        "miner": "0xba5e000000000000000000000000000000000000",
        "difficulty": "0x020000",
        "extraData": "0x42",
        "gasLimit": "0x016345785d8a0000",
        "gasUsed": "0x015534",
        "hash": "0x6a251c7c3c5dca7b42407a3752ff48f3bbca1fab7f9868371d9918daf1988d1f",
        "mixHash": "0x0000000000000000000000000000000000000000000000000000000000000000",
        "nonce": "0x0000000000000000",
        "number": "0x01",
        "parentHash": "0xe0a94a7a3c9617401586b1a27025d2d9671332d22d540e0af72b069170380f2a",
        "receiptsRoot": "0x29b0562f7140574dd0d50dee8a271b22e1a0a7b78fca58f7c60370d8317ba2a9",
        "stateRoot": "0xec3c94b18b8a1cff7d60f8d258ec723312932928626b4c9355eb4ab3568ec7f7",
        "timestamp": "0x079e",
        "transactionsRoot": "0x50f738580ed699f0469702c7ccc63ed2e51bc034be9479b7bff4e68dee84accf",
        "sha3Uncles": "0x1dcc4de8dec75d7aab85b567b6ccd41ad312451b948a7413f0a142fd40d49347"
      }
    }
  ]
}
