{
  "blockHeaders": [
    {
      "source": "https://eips.ethereum.org/EIPS/eip-2481",
      "title": "pre eip1559 block header",
      "rlp": "0xf901f9a00000000000000000000000000000000000000000000000000000000000000000a00000000000000000000000000000000000000000000000000000000000000000940000000000000000000000000000000000000000a00000000000000000000000000000000000000000000000000000000000000000a00000000000000000000000000000000000000000000000000000000000000000a00000000000000000000000000000000000000000000000000000000000000000b90100000000000000000000000000000000000000000000000000000000000000000000000000000000000000000000000000000000000000000000000000000000000000000000000000000000000000000000000000000000000000000000000000000000000000000000000000000000000000000000000000000000000000000000000000000000000000000000000000000000000000000000000000000000000000000000000000000000000000000000000000000000000000000000000000000000000000000000000000000000000000000000000000000000000000000000000000000000000000000000000000000000000000000000000000000000008208ae820d0582115c8215b3821a0a827788a00000000000000000000000000000000000000000000000000000000000000000880000000000000000",
      "hash": "0x8c2f2af15b7b563b6ab1e09bed0e9caade7ed730aec98b70a993597a797579a9",
      "header": {
        "parentHash": "0x0000000000000000000000000000000000000000000000000000000000000000",
        "sha3Uncles": "0x0000000000000000000000000000000000000000000000000000000000000000",
        "miner": "0x0000000000000000000000000000000000000000",
        "stateRoot": "0x0000000000000000000000000000000000000000000000000000000000000000",
        "transactionsRoot": "0x0000000000000000000000000000000000000000000000000000000000000000",
        "receiptsRoot": "0x0000000000000000000000000000000000000000000000000000000000000000",
        "logsBloom": "0x00000000000000000000000000000000000000000000000000000000000000000000000000000000000000000000000000000000000000000000000000000000000000000000000000000000000000000000000000000000000000000000000000000000000000000000000000000000000000000000000000000000000000000000000000000000000000000000000000000000000000000000000000000000000000000000000000000000000000000000000000000000000000000000000000000000000000000000000000000000000000000000000000000000000000000000000000000000000000000000000000000000000000000000000000000000",
        "difficulty": "0x8ae",
        "number": "0xd05",
        "gasLimit": "0x115c",
        "gasUsed": "0x15b3",
        "timestamp": "0x1a0a",
        "extraData": "0x7788",
        "mixHash": "0x0000000000000000000000000000000000000000000000000000000000000000",
        "nonce": "0x0000000000000000",
        "hash": "0x8c2f2af15b7b563b6ab1e09bed0e9caade7ed730aec98b70a993597a797579a9"
      }
    },
    {
      "source": "https://github.com/ethereum/tests/blob/f47bbef4da376a49c8fc3166f09ab8a6d182f765/BlockchainTests/ValidBlocks/bcEIP1559/baseFee.json#L15-L36",
      "rlp": "0xf90200a0e0a94a7a3c9617401586b1a27025d2d9671332d22d540e0af72b069170380f2aa01dcc4de8dec75d7aab85b567b6ccd41ad312451b948a7413f0a142fd40d4934794ba5e000000000000000000000000000000000000a0ec3c94b18b8a1cff7d60f8d258ec723312932928626b4c9355eb4ab3568ec7f7a050f738580ed699f0469702c7ccc63ed2e51bc034be9479b7bff4e68dee84accfa029b0562f7140574dd0d50dee8a271b22e1a0a7b78fca58f7c60370d8317ba2a9b9010000000000000000000000000000000000000000000000000000000000000000000000000000000000000000000000000000000000000000000000000000000000000000000000000000000000000000000000000000000000000000000000000000000000000000000000000000000000000000000000000000000000000000000000000000000000000000000000000000000000000000000000000000000000000000000000000000000000000000000000000000000000000000000000000000000000000000000000000000000000000000000000000000000000000000000000000000000000000000000000000000000000000000000000000000000000830200000188016345785d8a00008301553482079e42a0000000000000000000000000000000000000000000000000000000000000000088000000000000000082036b",
      "title": "post eip1559 block header",
      "hash": "0x6a251c7c3c5dca7b42407a3752ff48f3bbca1fab7f9868371d9918daf1988d1f",
      "header": {
        "baseFeePerGas": "0x036b",
        "logsBloom": "0x00000000000000000000000000000000000000000000000000000000000000000000000000000000000000000000000000000000000000000000000000000000000000000000000000000000000000000000000000000000000000000000000000000000000000000000000000000000000000000000000000000000000000000000000000000000000000000000000000000000000000000000000000000000000000000000000000000000000000000000000000000000000000000000000000000000000000000000000000000000000000000000000000000000000000000000000000000000000000000000000000000000000000000000000000000000",
        "miner": "0xba5e000000000000000000000000000000000000",
        "difficulty": "0x020000",
        "extraData": "0x42",
        "gasLimit": "0x016345785d8a0000",
        "gasUsed": "0x015534",
        "hash": "0x6a251c7c3c5dca7b42407a3752ff48f3bbca1fab7f9868371d9918daf1988d1f",
        "mixHash": "0x0000000000000000000000000000000000000000000000000000000000000000",
        "nonce": "0x0000000000000000",
        "number": "0x01",
        "parentHash": "0xe0a94a7a3c9617401586b1a27025d2d9671332d22d540e0af72b069170380f2a",
        "receiptsRoot": "0x29b0562f7140574dd0d50dee8a271b22e1a0a7b78fca58f7c60370d8317ba2a9",
        "stateRoot": "0xec3c94b18b8a1cff7d60f8d258ec723312932928626b4c9355eb4ab3568ec7f7",
        "timestamp": "0x079e",
        "transactionsRoot": "0x50f738580ed699f0469702c7ccc63ed2e51bc034be9479b7bff4e68dee84accf",
        "sha3Uncles": "0x1dcc4de8dec75d7aab85b567b6ccd41ad312451b948a7413f0a142fd40d49347"
      }
    },
    {
      "source": "Ethereum mainnet block 14194126",
      "rlp": "0xf90219a01315c9495925503b99fe391c5190b03c928b0afa5eba257f093e825604bd4d56a01dcc4de8dec75d7aab85b567b6ccd41ad312451b948a7413f0a142fd40d49347941ad91ee08f21be3de0ba2ba6918e714da6b45836a0d78d4f182ebd7f0dc86c5b328b73f9ea3dfe17ee56fbb490d9b67edac48e2b04a0ffadf2a50d8aa20e19c37ea385864998231e6524d200425f076479629cb20d9ca0bcb477e406f547e79f0bcc5406f60fbba70cf12b874fbdd646cb6c1e81d64db1b90100c320000000021204803045c1800512044102d0080e00110001852a204cd001970800e0028080805000084100004201040381848008008b88824a88000230260d34083880002201400b84040a140006280090620000620420101a3580804438400b09300503aa0a0220001e8110000a92200a4238083a44006200411006000281300014000eae10c03058a4104793100c150088010084048a0e080242001000000a90980806180800000400d00001440440801000440009108100110758851b404050042a483408016710020042020310041000010009049000190546046229001911a20c004080881026002664222ac500810058b40000460002d88008400000872e2632952e320283d895ce8401c9c38083924c6f8462083b4791486976656f6e2065752d68656176792d32a0b1ee7558e23d1014b70be22081b602661492bef5b5211b42d7fe84dbf34cde3688331f32cd8d3536b1850a22bc31c8",
      "title": "14194126 block header",
      "hash": "0xbe8aa5945d3377e65ed06757555d0d4babe269097574c210133e59cf6bc17d18",
      "header": {
        "parentHash": "0x1315c9495925503b99fe391c5190b03c928b0afa5eba257f093e825604bd4d56",
        "sha3Uncles": "0x1dcc4de8dec75d7aab85b567b6ccd41ad312451b948a7413f0a142fd40d49347",
        "miner": "0x1ad91ee08f21be3de0ba2ba6918e714da6b45836",
        "stateRoot": "0xd78d4f182ebd7f0dc86c5b328b73f9ea3dfe17ee56fbb490d9b67edac48e2b04",
        "transactionsRoot": "0xffadf2a50d8aa20e19c37ea385864998231e6524d200425f076479629cb20d9c",
        "receiptsRoot": "0xbcb477e406f547e79f0bcc5406f60fbba70cf12b874fbdd646cb6c1e81d64db1",
        "logsBloom": "0xc320000000021204803045c1800512044102d0080e00110001852a204cd001970800e0028080805000084100004201040381848008008b88824a88000230260d34083880002201400b84040a140006280090620000620420101a3580804438400b09300503aa0a0220001e8110000a92200a4238083a44006200411006000281300014000eae10c03058a4104793100c150088010084048a0e080242001000000a90980806180800000400d00001440440801000440009108100110758851b404050042a483408016710020042020310041000010009049000190546046229001911a20c004080881026002664222ac500810058b40000460002d88008400000",
        "difficulty": "0x2e2632952e3202",
        "number": "0xd895ce",
        "gasLimit": "0x1c9c380",
        "gasUsed": "0x924c6f",
        "timestamp": "0x62083b47",
        "extraData": "0x486976656f6e2065752d68656176792d32",
        "mixHash": "0xb1ee7558e23d1014b70be22081b602661492bef5b5211b42d7fe84dbf34cde36",
        "nonce": "0x331f32cd8d3536b1",
        "baseFeePerGas": "0xa22bc31c8"
      }
    }
  ]
}
